{
  "contractName": "BcareContract",
  "abi": [
    {
      "inputs": [],
      "stateMutability": "nonpayable",
      "type": "constructor"
    },
    {
      "inputs": [],
      "name": "owner",
      "outputs": [
        {
          "internalType": "address",
          "name": "",
          "type": "address"
        }
      ],
      "stateMutability": "view",
      "type": "function"
    },
    {
      "inputs": [],
      "name": "patientCount",
      "outputs": [
        {
          "internalType": "uint256",
          "name": "",
          "type": "uint256"
        }
      ],
      "stateMutability": "view",
      "type": "function"
    },
    {
      "inputs": [
        {
          "internalType": "uint256",
          "name": "",
          "type": "uint256"
        }
      ],
      "name": "patients",
      "outputs": [
        {
          "internalType": "uint256",
          "name": "id",
          "type": "uint256"
        },
        {
          "internalType": "string",
          "name": "name",
          "type": "string"
        }
      ],
      "stateMutability": "view",
      "type": "function"
    },
    {
      "inputs": [
        {
          "internalType": "string",
          "name": "_name",
          "type": "string"
        }
      ],
      "name": "addPatient",
      "outputs": [],
      "stateMutability": "nonpayable",
      "type": "function"
    },
    {
      "inputs": [
        {
          "internalType": "uint256",
          "name": "_patientId",
          "type": "uint256"
        },
        {
          "internalType": "uint256",
          "name": "_processId",
          "type": "uint256"
        }
      ],
      "name": "addProcess",
      "outputs": [],
      "stateMutability": "nonpayable",
      "type": "function"
    },
    {
      "inputs": [
        {
          "internalType": "uint256",
          "name": "_id",
          "type": "uint256"
        }
      ],
      "name": "getPatient",
      "outputs": [
        {
          "components": [
            {
              "internalType": "uint256",
              "name": "id",
              "type": "uint256"
            },
            {
              "internalType": "string",
              "name": "name",
              "type": "string"
            },
            {
              "internalType": "uint256[]",
              "name": "processes",
              "type": "uint256[]"
            }
          ],
          "internalType": "struct BcareContract.Patient",
          "name": "",
          "type": "tuple"
        }
      ],
      "stateMutability": "view",
      "type": "function"
    }
  ],
  "bytecode": "0x608060405234801561001057600080fd5b50336000806101000a81548173ffffffffffffffffffffffffffffffffffffffff021916908373ffffffffffffffffffffffffffffffffffffffff160217905550610cf2806100606000396000f3fe608060405234801561001057600080fd5b50600436106100625760003560e01c80633a090b81146100675780637d3a6796146100835780638da5cb5b146100b357806393119a83146100d1578063a0303c4114610102578063fb87cf9414610120575b600080fd5b610081600480360381019061007c9190610791565b61013c565b005b61009d60048036038101906100989190610768565b610211565b6040516100aa91906109da565b60405180910390f35b6100bb610332565b6040516100c8919061099f565b60405180910390f35b6100eb60048036038101906100e69190610768565b610356565b6040516100f9929190610a17565b60405180910390f35b61010a610402565b60405161011791906109fc565b60405180910390f35b61013a60048036038101906101359190610727565b610408565b005b60008054906101000a900473ffffffffffffffffffffffffffffffffffffffff1673ffffffffffffffffffffffffffffffffffffffff163373ffffffffffffffffffffffffffffffffffffffff16146101ca576040517f08c379a00000000000000000000000000000000000000000000000000000000081526004016101c1906109ba565b60405180910390fd5b600060026000848152602001908152602001600020905080600201829080600181540180825580915050600190039060005260206000200160009091909190915055505050565b610219610599565b600260008381526020019081526020016000206040518060600160405290816000820154815260200160018201805461025190610b8c565b80601f016020809104026020016040519081016040528092919081815260200182805461027d90610b8c565b80156102ca5780601f1061029f576101008083540402835291602001916102ca565b820191906000526020600020905b8154815290600101906020018083116102ad57829003601f168201915b505050505081526020016002820180548060200260200160405190810160405280929190818152602001828054801561032257602002820191906000526020600020905b81548152602001906001019080831161030e575b5050505050815250509050919050565b60008054906101000a900473ffffffffffffffffffffffffffffffffffffffff1681565b600260205280600052604060002060009150905080600001549080600101805461037f90610b8c565b80601f01602080910402602001604051908101604052809291908181526020018280546103ab90610b8c565b80156103f85780601f106103cd576101008083540402835291602001916103f8565b820191906000526020600020905b8154815290600101906020018083116103db57829003601f168201915b5050505050905082565b60015481565b60008054906101000a900473ffffffffffffffffffffffffffffffffffffffff1673ffffffffffffffffffffffffffffffffffffffff163373ffffffffffffffffffffffffffffffffffffffff1614610496576040517f08c379a000000000000000000000000000000000000000000000000000000000815260040161048d906109ba565b60405180910390fd5b6000600160008154809291906104ab90610bbe565b9190505590506040518060600160405280828152602001838152602001600067ffffffffffffffff811115610509577f4e487b7100000000000000000000000000000000000000000000000000000000600052604160045260246000fd5b6040519080825280602002602001820160405280156105375781602001602082028036833780820191505090505b50815250600260008381526020019081526020016000206000820151816000015560208201518160010190805190602001906105749291906105ba565b506040820151816002019080519060200190610591929190610640565b509050505050565b60405180606001604052806000815260200160608152602001606081525090565b8280546105c690610b8c565b90600052602060002090601f0160209004810192826105e8576000855561062f565b82601f1061060157805160ff191683800117855561062f565b8280016001018555821561062f579182015b8281111561062e578251825591602001919060010190610613565b5b50905061063c919061068d565b5090565b82805482825590600052602060002090810192821561067c579160200282015b8281111561067b578251825591602001919060010190610660565b5b509050610689919061068d565b5090565b5b808211156106a657600081600090555060010161068e565b5090565b60006106bd6106b884610a78565b610a47565b9050828152602081018484840111156106d557600080fd5b6106e0848285610b4a565b509392505050565b600082601f8301126106f957600080fd5b81356107098482602086016106aa565b91505092915050565b60008135905061072181610ca5565b92915050565b60006020828403121561073957600080fd5b600082013567ffffffffffffffff81111561075357600080fd5b61075f848285016106e8565b91505092915050565b60006020828403121561077a57600080fd5b600061078884828501610712565b91505092915050565b600080604083850312156107a457600080fd5b60006107b285828601610712565b92505060206107c385828601610712565b9150509250929050565b60006107d98383610981565b60208301905092915050565b6107ee81610b0e565b82525050565b60006107ff82610ab8565b6108098185610adb565b935061081483610aa8565b8060005b8381101561084557815161082c88826107cd565b975061083783610ace565b925050600181019050610818565b5085935050505092915050565b600061085d82610ac3565b6108678185610aec565b9350610877818560208601610b59565b61088081610c94565b840191505092915050565b600061089682610ac3565b6108a08185610afd565b93506108b0818560208601610b59565b6108b981610c94565b840191505092915050565b60006108d1602e83610afd565b91507f4f6e6c792074686520636f6e7472616374206f776e65722063616e2063616c6c60008301527f20746869732066756e6374696f6e0000000000000000000000000000000000006020830152604082019050919050565b60006060830160008301516109426000860182610981565b506020830151848203602086015261095a8282610852565b9150506040830151848203604086015261097482826107f4565b9150508091505092915050565b61098a81610b40565b82525050565b61099981610b40565b82525050565b60006020820190506109b460008301846107e5565b92915050565b600060208201905081810360008301526109d3816108c4565b9050919050565b600060208201905081810360008301526109f4818461092a565b905092915050565b6000602082019050610a116000830184610990565b92915050565b6000604082019050610a2c6000830185610990565b8181036020830152610a3e818461088b565b90509392505050565b6000604051905081810181811067ffffffffffffffff82111715610a6e57610a6d610c65565b5b8060405250919050565b600067ffffffffffffffff821115610a9357610a92610c65565b5b601f19601f8301169050602081019050919050565b6000819050602082019050919050565b600081519050919050565b600081519050919050565b6000602082019050919050565b600082825260208201905092915050565b600082825260208201905092915050565b600082825260208201905092915050565b6000610b1982610b20565b9050919050565b600073ffffffffffffffffffffffffffffffffffffffff82169050919050565b6000819050919050565b82818337600083830152505050565b60005b83811015610b77578082015181840152602081019050610b5c565b83811115610b86576000848401525b50505050565b60006002820490506001821680610ba457607f821691505b60208210811415610bb857610bb7610c36565b5b50919050565b6000610bc982610b40565b91507fffffffffffffffffffffffffffffffffffffffffffffffffffffffffffffffff821415610bfc57610bfb610c07565b5b600182019050919050565b7f4e487b7100000000000000000000000000000000000000000000000000000000600052601160045260246000fd5b7f4e487b7100000000000000000000000000000000000000000000000000000000600052602260045260246000fd5b7f4e487b7100000000000000000000000000000000000000000000000000000000600052604160045260246000fd5b6000601f19601f8301169050919050565b610cae81610b40565b8114610cb957600080fd5b5056fea26469706673582212206205d64250d1c138a722c6b5037eb5ab91f6a04bc2654e8e1010ef44970ba2ac64736f6c63430008000033",
  "immutableReferences": {},
  "source": "// SPDX-License-Identifier: MIT\r\npragma solidity ^0.8.0;\r\n\r\n// This contract holds the information and processes of cancer patients\r\ncontract BcareContract {\r\n    address public owner; // Owner of the contract\r\n    uint256 public patientCount; // Total count of patients\r\n\r\n    // Struct to store patient information and processes\r\n    struct Patient {\r\n        uint256 id;\r\n        string name;\r\n        uint256[] processes; // Array of process IDs\r\n    }\r\n\r\n    mapping(uint256 => Patient) public patients; // Map patient ID to patient struct\r\n\r\n    // Modifier to restrict access to the contract owner\r\n    modifier onlyOwner() {\r\n        require(\r\n            msg.sender == owner,\r\n            \"Only the contract owner can call this function\"\r\n        );\r\n        _;\r\n    }\r\n\r\n    // Constructor to set the contract owner\r\n    constructor() {\r\n        owner = msg.sender;\r\n    }\r\n\r\n    // Function to add a new patient\r\n    function addPatient(string memory _name) public onlyOwner {\r\n        uint256 id = patientCount++;\r\n        patients[id] = Patient(id, _name, new uint256[](0));\r\n    }\r\n\r\n    // Function to add a process to a patient\r\n    function addProcess(\r\n        uint256 _patientId,\r\n        uint256 _processId\r\n    ) public onlyOwner {\r\n        Patient storage patient = patients[_patientId];\r\n        patient.processes.push(_processId);\r\n    }\r\n\r\n    // Retrieve patient information by ID\r\n    function getPatient(uint256 _id) public view returns (Patient memory) {\r\n        return patients[_id];\r\n    }\r\n}\r\n",
  "sourcePath": "C:\\Users\\yotur\\Documentos\\DApps\\B_Care_DApp\\contracts\\bcareContract.sol",
  "compiler": {
    "name": "solc",
    "version": "0.8.0+commit.c7dfd78e.Emscripten.clang"
  },
  "schemaVersion": "3.4.15",
  "updatedAt": "2023-09-13T19:33:46.854Z",
  "devdoc": {
    "kind": "dev",
    "methods": {},
    "version": 1
  },
  "userdoc": {
    "kind": "user",
    "methods": {},
    "version": 1
  }
}